001000000050BOSTON              FRANK               202 555 1212   ACCTNGENG
002000000060SMITH               JOHN                714 555 9876   ENTMNTGER
003000000065SMITHERS            CAROL               229 555 1212   ENTMNTENG
004000000070SMYTHE              JON                 562 555 6543   ENTMNTGER
005000000080GERSTNER            LOU                 204 555 2345   SALE01FRE
006000000090SMITH               SAM                 415 555 6382   SALE01ENG
007000000001CAIN                ABLE                800 555 1234   TECH01ENG
