0010SMITH               ENTMNT07290000025000
0020SMYTHE              ENTMNT00284000059900
0030GERSTNER            SALE0100185000025000
0040GERSTNER            SALE0102974100000000
0050GERSTNER            SALE0103297001500000
0060GERSTNER            SALE0104126800750000
0070HENDRIX             SALE0101184000100000
0080SMITH               SALE0100039701000000
0090CAIN                TECH0101343000100000
0100SMITH               TECH0127032000085500
0110THOMPSON            TECH0100719000785000
0120THOMPSON            TECH0124900000456700
0130ZILDJAN             TECH1300020000012500
